{
  "_format": "hh-sol-artifact-1",
  "contractName": "Wallet2FA",
  "sourceName": "contracts/Wallet2FA.sol",
  "abi": [
    {
      "anonymous": false,
      "inputs": [
        {
          "indexed": true,
          "internalType": "address",
          "name": "user",
          "type": "address"
        },
        {
          "indexed": true,
          "internalType": "bytes32",
          "name": "sessionHash",
          "type": "bytes32"
        },
        {
          "indexed": false,
          "internalType": "string",
          "name": "service",
          "type": "string"
        },
        {
          "indexed": false,
          "internalType": "uint256",
          "name": "timestamp",
          "type": "uint256"
        }
      ],
      "name": "AuthenticationLogged",
      "type": "event"
    },
    {
      "anonymous": false,
      "inputs": [
        {
          "indexed": true,
          "internalType": "address",
          "name": "user",
          "type": "address"
        },
        {
          "indexed": false,
          "internalType": "uint256",
          "name": "loginCount",
          "type": "uint256"
        }
      ],
      "name": "LoginNFTMinted",
      "type": "event"
    },
    {
      "anonymous": false,
      "inputs": [
        {
          "indexed": true,
          "internalType": "address",
          "name": "user",
          "type": "address"
        },
        {
          "indexed": false,
          "internalType": "bytes32",
          "name": "sessionHash",
          "type": "bytes32"
        }
      ],
      "name": "SessionRevoked",
      "type": "event"
    },
    {
      "anonymous": false,
      "inputs": [
        {
          "indexed": true,
          "internalType": "address",
          "name": "user",
          "type": "address"
        },
        {
          "indexed": false,
          "internalType": "uint256",
          "name": "timestamp",
          "type": "uint256"
        }
      ],
      "name": "UserRegistered",
      "type": "event"
    },
    {
      "inputs": [
        {
          "internalType": "bytes32",
          "name": "",
          "type": "bytes32"
        }
      ],
      "name": "authRecords",
      "outputs": [
        {
          "internalType": "address",
          "name": "user",
          "type": "address"
        },
        {
          "internalType": "uint256",
          "name": "timestamp",
          "type": "uint256"
        },
        {
          "internalType": "string",
          "name": "service",
          "type": "string"
        },
        {
          "internalType": "bytes32",
          "name": "sessionHash",
          "type": "bytes32"
        },
        {
          "internalType": "bool",
          "name": "isActive",
          "type": "bool"
        }
      ],
      "stateMutability": "view",
      "type": "function"
    },
    {
      "inputs": [
        {
          "internalType": "address",
          "name": "user",
          "type": "address"
        }
      ],
      "name": "getActiveSessions",
      "outputs": [
        {
          "internalType": "bytes32[]",
          "name": "",
          "type": "bytes32[]"
        }
      ],
      "stateMutability": "view",
      "type": "function"
    },
    {
      "inputs": [
        {
          "internalType": "address",
          "name": "user",
          "type": "address"
        }
      ],
      "name": "getUserStats",
      "outputs": [
        {
          "internalType": "uint256",
          "name": "totalLogins",
          "type": "uint256"
        },
        {
          "internalType": "uint256",
          "name": "lastLogin",
          "type": "uint256"
        },
        {
          "internalType": "uint256",
          "name": "reputationScore",
          "type": "uint256"
        },
        {
          "internalType": "uint256",
          "name": "nftBalance",
          "type": "uint256"
        }
      ],
      "stateMutability": "view",
      "type": "function"
    },
    {
      "inputs": [
        {
          "internalType": "address",
          "name": "user",
          "type": "address"
        }
      ],
      "name": "isUserRegistered",
      "outputs": [
        {
          "internalType": "bool",
          "name": "",
          "type": "bool"
        }
      ],
      "stateMutability": "view",
      "type": "function"
    },
    {
      "inputs": [
        {
          "internalType": "string",
          "name": "service",
          "type": "string"
        },
        {
          "internalType": "bytes32",
          "name": "sessionHash",
          "type": "bytes32"
        }
      ],
      "name": "logAuthentication",
      "outputs": [],
      "stateMutability": "nonpayable",
      "type": "function"
    },
    {
      "inputs": [
        {
          "internalType": "address",
          "name": "",
          "type": "address"
        }
      ],
      "name": "loginNFTBalance",
      "outputs": [
        {
          "internalType": "uint256",
          "name": "",
          "type": "uint256"
        }
      ],
      "stateMutability": "view",
      "type": "function"
    },
    {
      "inputs": [],
      "name": "registerUser",
      "outputs": [],
      "stateMutability": "nonpayable",
      "type": "function"
    },
    {
      "inputs": [
        {
          "internalType": "bytes32",
          "name": "sessionHash",
          "type": "bytes32"
        }
      ],
      "name": "revokeSession",
      "outputs": [],
      "stateMutability": "nonpayable",
      "type": "function"
    },
    {
      "inputs": [
        {
          "internalType": "address",
          "name": "",
          "type": "address"
        }
      ],
      "name": "userProfiles",
      "outputs": [
        {
          "internalType": "uint256",
          "name": "totalLogins",
          "type": "uint256"
        },
        {
          "internalType": "uint256",
          "name": "lastLogin",
          "type": "uint256"
        },
        {
          "internalType": "bool",
          "name": "isRegistered",
          "type": "bool"
        },
        {
          "internalType": "uint256",
          "name": "reputationScore",
          "type": "uint256"
        }
      ],
      "stateMutability": "view",
      "type": "function"
    },
    {
      "inputs": [
        {
          "internalType": "address",
          "name": "",
          "type": "address"
        },
        {
          "internalType": "uint256",
          "name": "",
          "type": "uint256"
        }
      ],
      "name": "userSessions",
      "outputs": [
        {
          "internalType": "bytes32",
          "name": "",
          "type": "bytes32"
        }
      ],
      "stateMutability": "view",
      "type": "function"
    }
  ],
  "bytecode": "0x608060405234801561001057600080fd5b50610e0f806100206000396000f3fe608060405234801561001057600080fd5b506004361061009e5760003560e01c80634e43603a116100665780634e43603a146101a85780636d597d131461023357806380ea53de14610246578063a7fed38514610266578063c040db731461027957600080fd5b806301e38c0d146100a3578063163f7522146100d0578063232779031461010f578063332d56d71461013d5780634d3820eb1461019e575b600080fd5b6100b66100b13660046109d8565b61028c565b6040516100c7959493929190610a37565b60405180910390f35b6100ff6100de366004610a93565b6001600160a01b031660009081526020819052604090206002015460ff1690565b60405190151581526020016100c7565b61012f61011d366004610a93565b60036020526000908152604090205481565b6040519081526020016100c7565b61017861014b366004610a93565b60006020819052908152604090208054600182015460028301546003909301549192909160ff9091169084565b6040805194855260208501939093529015159183019190915260608201526080016100c7565b6101a6610354565b005b6102136101b6366004610a93565b6001600160a01b0316600081815260208181526040808320815160808101835281548082526001830154828601819052600284015460ff161515838601526003938401546060909301839052968652919093529220549193909190565b6040805194855260208501939093529183015260608201526080016100c7565b61012f610241366004610ab5565b61044c565b610259610254366004610a93565b61047d565b6040516100c79190610adf565b6101a66102743660046109d8565b61063f565b6101a6610287366004610b39565b610751565b60016020819052600091825260409091208054918101546002820180546001600160a01b03909416939192916102c190610bee565b80601f01602080910402602001604051908101604052809291908181526020018280546102ed90610bee565b801561033a5780601f1061030f5761010080835404028352916020019161033a565b820191906000526020600020905b81548152906001019060200180831161031d57829003601f168201915b50505050600383015460049093015491929160ff16905085565b3360009081526020819052604090206002015460ff16156103bc5760405162461bcd60e51b815260206004820152601760248201527f5573657220616c7265616479207265676973746572656400000000000000000060448201526064015b60405180910390fd5b604080516080810182526000808252602080830182815260018486018181526064606087019081523380875286865295889020965187559251918601919091555160028501805460ff19169115159190911790555160039093019290925591514281527fe29d35093005f4d575e1003753426b57a7f64378ba73332eef9c6ccc2b8decd6910160405180910390a2565b6002602052816000526040600020818154811061046857600080fd5b90600052602060002001600091509150505481565b6001600160a01b03811660009081526002602090815260408083208054825181850281018501909352808352606094938301828280156104dc57602002820191906000526020600020905b8154815260200190600101908083116104c8575b505050505090506000805b825181101561054c576001600084838151811061050657610506610c28565b60209081029190910181015182528101919091526040016000206004015460ff161561053a578161053681610c54565b9250505b8061054481610c54565b9150506104e7565b5060008167ffffffffffffffff81111561056857610568610b23565b604051908082528060200260200182016040528015610591578160200160208202803683370190505b5090506000805b845181101561063457600160008683815181106105b7576105b7610c28565b60209081029190910181015182528101919091526040016000206004015460ff1615610622578481815181106105ef576105ef610c28565b602002602001015183838151811061060957610609610c28565b60209081029190910101528161061e81610c54565b9250505b8061062c81610c54565b915050610598565b509095945050505050565b6000818152600160205260409020546001600160a01b031633146106995760405162461bcd60e51b81526020600482015260116024820152702737ba1039b2b9b9b4b7b71037bbb732b960791b60448201526064016103b3565b60008181526001602052604090206004015460ff166106fa5760405162461bcd60e51b815260206004820152601760248201527f53657373696f6e20616c7265616479207265766f6b656400000000000000000060448201526064016103b3565b60008181526001602052604090819020600401805460ff191690555133907e6be5f629d8df9f032986474cfc3bfc82c9b1cd74dcb2fcb5b3d48f98a50024906107469084815260200190565b60405180910390a250565b3360009081526020819052604090206002015460ff166107a95760405162461bcd60e51b8152602060048201526013602482015272155cd95c881b9bdd081c9959da5cdd195c9959606a1b60448201526064016103b3565b60008181526001602081905260409091200154156108095760405162461bcd60e51b815260206004820152601960248201527f53657373696f6e206861736820616c726561647920757365640000000000000060448201526064016103b3565b6040805160a0810182523381524260208083019182528284018681526060840186905260016080850181905260008781529281905294909120835181546001600160a01b0319166001600160a01b039091161781559151938201939093559151909190600282019061087b9082610cbc565b50606082015160038201556080909101516004909101805460ff19169115159190911790553360009081526020819052604081208054916108bb83610c54565b90915550503360009081526020819052604081204260018201556003018054600592906108e9908490610d7c565b909155505033600081815260026020908152604080832080546001810182559084529190922001839055518291907fed565c8d8b669788c6751d45b7795a9139332eb62549ca7d6310f8f2616cbb90906109469086904290610d95565b60405180910390a33360009081526020819052604090205461096a90600a90610db7565b6000036109d45733600090815260036020526040812080549161098c83610c54565b909155505033600081815260208181526040918290205491519182527fbddefacc74c41c5f8858f1bb0fe8882c90b72a4a7f1e287ec0c5a9b7a411d13b910160405180910390a25b5050565b6000602082840312156109ea57600080fd5b5035919050565b6000815180845260005b81811015610a17576020818501810151868301820152016109fb565b506000602082860101526020601f19601f83011685010191505092915050565b60018060a01b038616815284602082015260a060408201526000610a5e60a08301866109f1565b6060830194909452509015156080909101529392505050565b80356001600160a01b0381168114610a8e57600080fd5b919050565b600060208284031215610aa557600080fd5b610aae82610a77565b9392505050565b60008060408385031215610ac857600080fd5b610ad183610a77565b946020939093013593505050565b6020808252825182820181905260009190848201906040850190845b81811015610b1757835183529284019291840191600101610afb565b50909695505050505050565b634e487b7160e01b600052604160045260246000fd5b60008060408385031215610b4c57600080fd5b823567ffffffffffffffff80821115610b6457600080fd5b818501915085601f830112610b7857600080fd5b813581811115610b8a57610b8a610b23565b604051601f8201601f19908116603f01168101908382118183101715610bb257610bb2610b23565b81604052828152886020848701011115610bcb57600080fd5b826020860160208301376000602093820184015298969091013596505050505050565b600181811c90821680610c0257607f821691505b602082108103610c2257634e487b7160e01b600052602260045260246000fd5b50919050565b634e487b7160e01b600052603260045260246000fd5b634e487b7160e01b600052601160045260246000fd5b600060018201610c6657610c66610c3e565b5060010190565b601f821115610cb757600081815260208120601f850160051c81016020861015610c945750805b601f850160051c820191505b81811015610cb357828155600101610ca0565b5050505b505050565b815167ffffffffffffffff811115610cd657610cd6610b23565b610cea81610ce48454610bee565b84610c6d565b602080601f831160018114610d1f5760008415610d075750858301515b600019600386901b1c1916600185901b178555610cb3565b600085815260208120601f198616915b82811015610d4e57888601518255948401946001909101908401610d2f565b5085821015610d6c5787850151600019600388901b60f8161c191681555b5050505050600190811b01905550565b80820180821115610d8f57610d8f610c3e565b92915050565b604081526000610da860408301856109f1565b90508260208301529392505050565b600082610dd457634e487b7160e01b600052601260045260246000fd5b50069056fea26469706673582212208c8b74a81db48d6a743856e3ce222e79ce3c86981e66242e8707451f389f648a64736f6c63430008140033",
  "linkReferences": {},
  "deployedLinkReferences": {}
}